{"abi":[{"type":"constructor","inputs":[],"stateMutability":"nonpayable"},{"type":"function","name":"changePoolLockDuration","inputs":[{"name":"newDuration","type":"uint256","internalType":"uint256"}],"outputs":[],"stateMutability":"nonpayable"},{"type":"function","name":"changePoolRate","inputs":[{"name":"newRate","type":"uint256","internalType":"uint256"}],"outputs":[],"stateMutability":"nonpayable"},{"type":"function","name":"deposit","inputs":[],"outputs":[],"stateMutability":"payable"},{"type":"function","name":"getPoolAmount","inputs":[],"outputs":[{"name":"","type":"uint256","internalType":"uint256"}],"stateMutability":"view"},{"type":"function","name":"getPoolLockDuration","inputs":[],"outputs":[{"name":"","type":"uint256","internalType":"uint256"}],"stateMutability":"view"},{"type":"function","name":"getPoolRate","inputs":[],"outputs":[{"name":"","type":"uint256","internalType":"uint256"}],"stateMutability":"view"},{"type":"function","name":"withdraw","inputs":[],"outputs":[],"stateMutability":"nonpayable"}],"bytecode":{"object":"0x608060405234801561001057600080fd5b50600080546001600160a01b03191633178155600155600a600255601e6003556104b78061003f6000396000f3fe6080604052600436106100705760003560e01c8063cdb6ab0e1161004e578063cdb6ab0e146100c4578063d0e30db0146100e4578063ec9ab641146100ec578063ef8c29221461010157600080fd5b80633ccfd60b146100755780634ab4ba421461008c578063998dc2ef146100af575b600080fd5b34801561008157600080fd5b5061008a610121565b005b34801561009857600080fd5b506001545b60405190815260200160405180910390f35b3480156100bb57600080fd5b5060035461009d565b3480156100d057600080fd5b5061008a6100df3660046103ed565b6102a5565b61008a610316565b3480156100f857600080fd5b5060025461009d565b34801561010d57600080fd5b5061008a61011c3660046103ed565b610397565b600254336000908152600460205260408120549091606491610143919061041c565b61014d9190610439565b90506000811161019a5760405162461bcd60e51b8152602060048201526013602482015272273790333ab732399030bb30b4b630b136329760691b60448201526064015b60405180910390fd5b60035442116101eb5760405162461bcd60e51b815260206004820152601960248201527f506f6f6c2069732063757272656e746c79206c6f636b65642e000000000000006044820152606401610191565b604051600090339083908381818185875af1925050503d806000811461022d576040519150601f19603f3d011682016040523d82523d6000602084013e610232565b606091505b505090508061027a5760405162461bcd60e51b81526020600482015260146024820152732330b4b632b2103a379039b2b7321022ba3432b960611b6044820152606401610191565b816001600082825461028c919061045b565b9091555050336000908152600460205260408120555050565b6000546001600160a01b031633146103115760405162461bcd60e51b815260206004820152602960248201527f4f6e6c79206f776e65722063616e206368616e676520706f6f6c206c6f636b20604482015268323ab930ba34b7b71760b91b6064820152608401610191565b600355565b6000341161035a5760405162461bcd60e51b81526020600482015260116024820152702232b837b9b4ba103932b8bab4b932b21760791b6044820152606401610191565b346001600082825461036c919061046e565b9091555050336000908152600460205260408120805434929061039090849061046e565b9091555050565b6000546001600160a01b031633146103e85760405162461bcd60e51b815260206004820152601460248201527327b7363c9037bbb732b910333ab731ba34b7b71760611b6044820152606401610191565b600255565b6000602082840312156103ff57600080fd5b5035919050565b634e487b7160e01b600052601160045260246000fd5b808202811582820484141761043357610433610406565b92915050565b60008261045657634e487b7160e01b600052601260045260246000fd5b500490565b8181038181111561043357610433610406565b808201808211156104335761043361040656fea2646970667358221220107a986857594ed18556c8274eab5d390378b38b3f9604a11f3cb5fad09e8ec664736f6c63430008160033","linkReferences":{}},"methodIdentifiers":{"changePoolLockDuration(uint256)":"cdb6ab0e","changePoolRate(uint256)":"ef8c2922","deposit()":"d0e30db0","getPoolAmount()":"4ab4ba42","getPoolLockDuration()":"998dc2ef","getPoolRate()":"ec9ab641","withdraw()":"3ccfd60b"},"id":20}