{"abi":[{"type":"constructor","inputs":[],"stateMutability":"nonpayable"},{"type":"function","name":"calculateInterest","inputs":[{"name":"amount","type":"uint256","internalType":"uint256"},{"name":"depositDuration","type":"uint256","internalType":"uint256"}],"outputs":[{"name":"","type":"uint256","internalType":"uint256"}],"stateMutability":"view"},{"type":"function","name":"changePoolLockDuration","inputs":[{"name":"newDuration","type":"uint256","internalType":"uint256"}],"outputs":[],"stateMutability":"nonpayable"},{"type":"function","name":"changePoolRate","inputs":[{"name":"newRate","type":"uint256","internalType":"uint256"}],"outputs":[],"stateMutability":"nonpayable"},{"type":"function","name":"deposit","inputs":[],"outputs":[],"stateMutability":"payable"},{"type":"function","name":"deposits","inputs":[{"name":"","type":"address","internalType":"address"}],"outputs":[{"name":"amount","type":"uint256","internalType":"uint256"},{"name":"time","type":"uint256","internalType":"uint256"}],"stateMutability":"view"},{"type":"function","name":"getPoolAmount","inputs":[],"outputs":[{"name":"","type":"uint256","internalType":"uint256"}],"stateMutability":"view"},{"type":"function","name":"getPoolLockDuration","inputs":[],"outputs":[{"name":"","type":"uint256","internalType":"uint256"}],"stateMutability":"view"},{"type":"function","name":"getPoolRate","inputs":[],"outputs":[{"name":"","type":"uint256","internalType":"uint256"}],"stateMutability":"view"},{"type":"function","name":"getUserDeposit","inputs":[{"name":"user","type":"address","internalType":"address"}],"outputs":[{"name":"","type":"uint256","internalType":"uint256"},{"name":"","type":"uint256","internalType":"uint256"}],"stateMutability":"view"},{"type":"function","name":"owner","inputs":[],"outputs":[{"name":"","type":"address","internalType":"address"}],"stateMutability":"view"},{"type":"function","name":"poolAmount","inputs":[],"outputs":[{"name":"","type":"uint256","internalType":"uint256"}],"stateMutability":"view"},{"type":"function","name":"poolLockDuration","inputs":[],"outputs":[{"name":"","type":"uint256","internalType":"uint256"}],"stateMutability":"view"},{"type":"function","name":"poolRate","inputs":[],"outputs":[{"name":"","type":"uint256","internalType":"uint256"}],"stateMutability":"view"},{"type":"function","name":"withdraw","inputs":[],"outputs":[],"stateMutability":"nonpayable"},{"type":"event","name":"Deposited","inputs":[{"name":"user","type":"address","indexed":true,"internalType":"address"},{"name":"amount","type":"uint256","indexed":false,"internalType":"uint256"}],"anonymous":false},{"type":"event","name":"PoolLockDurationChanged","inputs":[{"name":"newDuration","type":"uint256","indexed":false,"internalType":"uint256"}],"anonymous":false},{"type":"event","name":"PoolRateChanged","inputs":[{"name":"newRate","type":"uint256","indexed":false,"internalType":"uint256"}],"anonymous":false},{"type":"event","name":"Withdrawn","inputs":[{"name":"user","type":"address","indexed":true,"internalType":"address"},{"name":"amount","type":"uint256","indexed":false,"internalType":"uint256"}],"anonymous":false},{"type":"error","name":"PoolLocked","inputs":[{"name":"unlockTime","type":"uint256","internalType":"uint256"}]}],"bytecode":{"object":"0x608060405234801561001057600080fd5b50600080546001600160a01b03191633178155600155600a60025562278d006003556108a8806100416000396000f3fe6080604052600436106100dd5760003560e01c8063c084b10b1161007f578063ec9ab64111610059578063ec9ab6411461023c578063ef8c292214610251578063efdd7c0714610271578063fc7e286d1461029157600080fd5b8063c084b10b146101ac578063cdb6ab0e14610214578063d0e30db01461023457600080fd5b80638da5cb5b116100bb5780638da5cb5b14610133578063998dc2ef1461016b578063a693600b14610180578063ba9a1cad1461019657600080fd5b80633ccfd60b146100e25780634ab4ba42146100f957806385096edc1461011d575b600080fd5b3480156100ee57600080fd5b506100f76102c5565b005b34801561010557600080fd5b506001545b6040519081526020015b60405180910390f35b34801561012957600080fd5b5061010a60025481565b34801561013f57600080fd5b50600054610153906001600160a01b031681565b6040516001600160a01b039091168152602001610114565b34801561017757600080fd5b5060035461010a565b34801561018c57600080fd5b5061010a60015481565b3480156101a257600080fd5b5061010a60035481565b3480156101b857600080fd5b506101ff6101c7366004610792565b6001600160a01b0316600090815260046020908152604091829020825180840190935280548084526001909101549290910182905291565b60408051928352602083019190915201610114565b34801561022057600080fd5b506100f761022f3660046107c2565b610560565b6100f7610608565b34801561024857600080fd5b5060025461010a565b34801561025d57600080fd5b506100f761026c3660046107c2565b6106c7565b34801561027d57600080fd5b5061010a61028c3660046107db565b61074d565b34801561029d57600080fd5b506101ff6102ac366004610792565b6004602052600090815260409020805460019091015482565b3360009081526004602090815260409182902082518084019093528054808452600190910154918301919091526103395760405162461bcd60e51b8152602060048201526013602482015272273790333ab732399030bb30b4b630b136329760691b60448201526064015b60405180910390fd5b600354816020015161034b9190610813565b421161037f5760035481602001516103639190610813565b604051633908cc6760e21b815260040161033091815260200190565b60008160200151426103919190610826565b905060006103a383600001518361074d565b905060008184600001516103b79190610813565b905047818110156104165760405162461bcd60e51b8152602060048201526024808201527f436f6e747261637420646f6573206e6f74206861766520656e6f7567682066756044820152633732399760e11b6064820152608401610330565b8160015410156104685760405162461bcd60e51b815260206004820181905260248201527f506f6f6c20646f6573206e6f74206861766520656e6f7567682066756e64732e6044820152606401610330565b816001600082825461047a9190610826565b9091555050336000818152600460205260408082208281556001018290555190919084908381818185875af1925050503d80600081146104d6576040519150601f19603f3d011682016040523d82523d6000602084013e6104db565b606091505b50509050806105235760405162461bcd60e51b81526020600482015260146024820152732330b4b632b2103a379039b2b7321022ba3432b960611b6044820152606401610330565b60405183815233907f7084f5476618d8e60b11ef0d7d3f06914655adb8793e28ff7f018d4c76d505d59060200160405180910390a2505050505050565b6000546001600160a01b031633146105cc5760405162461bcd60e51b815260206004820152602960248201527f4f6e6c79206f776e65722063616e206368616e676520706f6f6c206c6f636b20604482015268323ab930ba34b7b71760b91b6064820152608401610330565b60038190556040518181527fd21facc366489554e16d5f98cebc66efc21bb8e17afc4eed925a11a3081d4ddf906020015b60405180910390a150565b6000341161064c5760405162461bcd60e51b81526020600482015260116024820152702232b837b9b4ba103932b8bab4b932b21760791b6044820152606401610330565b346001600082825461065e9190610813565b9091555050604080518082018252348082524260208084019182523360008181526004835286902094518555915160019094019390935592519081527f2da466a7b24304f47e87fa2e1e5a81b9831ce54fec19055ce277ca2f39ba42c4910160405180910390a2565b6000546001600160a01b031633146107185760405162461bcd60e51b815260206004820152601460248201527327b7363c9037bbb732b910333ab731ba34b7b71760611b6044820152606401610330565b60028190556040518181527f54cc9a0c7064737ff1cd312e88e62ed2d306d146fe5df13c761b6fcd9a4c170f906020016105fd565b6000806064600254856107609190610839565b61076a9190610850565b905060006301e1338061077d8584610839565b6107879190610850565b925050505b92915050565b6000602082840312156107a457600080fd5b81356001600160a01b03811681146107bb57600080fd5b9392505050565b6000602082840312156107d457600080fd5b5035919050565b600080604083850312156107ee57600080fd5b50508035926020909101359150565b634e487b7160e01b600052601160045260246000fd5b8082018082111561078c5761078c6107fd565b8181038181111561078c5761078c6107fd565b808202811582820484141761078c5761078c6107fd565b60008261086d57634e487b7160e01b600052601260045260246000fd5b50049056fea2646970667358221220bd3e930fa6ec1cd82e59bacb6ea93e46184f7b16c1ca797de7937c07422c507864736f6c63430008160033","linkReferences":{}},"methodIdentifiers":{"calculateInterest(uint256,uint256)":"efdd7c07","changePoolLockDuration(uint256)":"cdb6ab0e","changePoolRate(uint256)":"ef8c2922","deposit()":"d0e30db0","deposits(address)":"fc7e286d","getPoolAmount()":"4ab4ba42","getPoolLockDuration()":"998dc2ef","getPoolRate()":"ec9ab641","getUserDeposit(address)":"c084b10b","owner()":"8da5cb5b","poolAmount()":"a693600b","poolLockDuration()":"ba9a1cad","poolRate()":"85096edc","withdraw()":"3ccfd60b"},"id":20}