{"abi":[{"type":"constructor","inputs":[],"stateMutability":"nonpayable"},{"type":"function","name":"calculateInterest","inputs":[{"name":"amount","type":"uint256","internalType":"uint256"},{"name":"depositDuration","type":"uint256","internalType":"uint256"}],"outputs":[{"name":"","type":"uint256","internalType":"uint256"}],"stateMutability":"view"},{"type":"function","name":"changePoolLockDuration","inputs":[{"name":"newDuration","type":"uint256","internalType":"uint256"}],"outputs":[],"stateMutability":"nonpayable"},{"type":"function","name":"changePoolRate","inputs":[{"name":"newRate","type":"uint256","internalType":"uint256"}],"outputs":[],"stateMutability":"nonpayable"},{"type":"function","name":"deposit","inputs":[],"outputs":[],"stateMutability":"payable"},{"type":"function","name":"deposits","inputs":[{"name":"","type":"address","internalType":"address"}],"outputs":[{"name":"amount","type":"uint256","internalType":"uint256"},{"name":"time","type":"uint256","internalType":"uint256"}],"stateMutability":"view"},{"type":"function","name":"getPoolAmount","inputs":[],"outputs":[{"name":"","type":"uint256","internalType":"uint256"}],"stateMutability":"view"},{"type":"function","name":"getPoolLockDuration","inputs":[],"outputs":[{"name":"","type":"uint256","internalType":"uint256"}],"stateMutability":"view"},{"type":"function","name":"getPoolRate","inputs":[],"outputs":[{"name":"","type":"uint256","internalType":"uint256"}],"stateMutability":"view"},{"type":"function","name":"owner","inputs":[],"outputs":[{"name":"","type":"address","internalType":"address"}],"stateMutability":"view"},{"type":"function","name":"poolAmount","inputs":[],"outputs":[{"name":"","type":"uint256","internalType":"uint256"}],"stateMutability":"view"},{"type":"function","name":"poolLockDuration","inputs":[],"outputs":[{"name":"","type":"uint256","internalType":"uint256"}],"stateMutability":"view"},{"type":"function","name":"poolRate","inputs":[],"outputs":[{"name":"","type":"uint256","internalType":"uint256"}],"stateMutability":"view"},{"type":"function","name":"withdraw","inputs":[],"outputs":[],"stateMutability":"nonpayable"},{"type":"event","name":"Deposited","inputs":[{"name":"user","type":"address","indexed":true,"internalType":"address"},{"name":"amount","type":"uint256","indexed":false,"internalType":"uint256"}],"anonymous":false},{"type":"event","name":"PoolLockDurationChanged","inputs":[{"name":"newDuration","type":"uint256","indexed":false,"internalType":"uint256"}],"anonymous":false},{"type":"event","name":"PoolRateChanged","inputs":[{"name":"newRate","type":"uint256","indexed":false,"internalType":"uint256"}],"anonymous":false},{"type":"event","name":"Withdrawn","inputs":[{"name":"user","type":"address","indexed":true,"internalType":"address"},{"name":"amount","type":"uint256","indexed":false,"internalType":"uint256"}],"anonymous":false},{"type":"error","name":"NoFunds","inputs":[{"name":"message","type":"string","internalType":"string"}]},{"type":"error","name":"PoolLocked","inputs":[{"name":"message","type":"string","internalType":"string"}]}],"bytecode":{"object":"0x608060405234801561001057600080fd5b50600080546001600160a01b03191633178155600155600a6002556301e13380600355610858806100426000396000f3fe6080604052600436106100c25760003560e01c8063ba9a1cad1161007f578063ec9ab64111610059578063ec9ab641146101b9578063ef8c2922146101ce578063efdd7c07146101ee578063fc7e286d1461020e57600080fd5b8063ba9a1cad1461017b578063cdb6ab0e14610191578063d0e30db0146101b157600080fd5b80633ccfd60b146100c75780634ab4ba42146100de57806385096edc146101025780638da5cb5b14610118578063998dc2ef14610150578063a693600b14610165575b600080fd5b3480156100d357600080fd5b506100dc610257565b005b3480156100ea57600080fd5b506001545b6040519081526020015b60405180910390f35b34801561010e57600080fd5b506100ef60025481565b34801561012457600080fd5b50600054610138906001600160a01b031681565b6040516001600160a01b0390911681526020016100f9565b34801561015c57600080fd5b506003546100ef565b34801561017157600080fd5b506100ef60015481565b34801561018757600080fd5b506100ef60035481565b34801561019d57600080fd5b506100dc6101ac366004610742565b610510565b6100dc6105b8565b3480156101c557600080fd5b506002546100ef565b3480156101da57600080fd5b506100dc6101e9366004610742565b610677565b3480156101fa57600080fd5b506100ef61020936600461075b565b6106fd565b34801561021a57600080fd5b5061024261022936600461077d565b6004602052600090815260409020805460019091015482565b604080519283526020830191909152016100f9565b336000908152600460209081526040918290208251808401909352805480845260019091015491830191909152156102cd576040516395de917760e01b8152602060048201526013602482015272273790333ab732399030bb30b4b630b136329760691b60448201526064015b60405180910390fd5b60035481602001516102df91906107c3565b42111561032f57604051630c572c1d60e41b815260206004820152601960248201527f506f6f6c2069732063757272656e746c79206c6f636b65642e0000000000000060448201526064016102c4565b600081602001514261034191906107d6565b905060006103538360000151836106fd565b9050600081846000015161036791906107c3565b905047818110156103c65760405162461bcd60e51b8152602060048201526024808201527f436f6e747261637420646f6573206e6f74206861766520656e6f7567682066756044820152633732399760e11b60648201526084016102c4565b8160015410156104185760405162461bcd60e51b815260206004820181905260248201527f506f6f6c20646f6573206e6f74206861766520656e6f7567682066756e64732e60448201526064016102c4565b816001600082825461042a91906107d6565b9091555050336000818152600460205260408082208281556001018290555190919084908381818185875af1925050503d8060008114610486576040519150601f19603f3d011682016040523d82523d6000602084013e61048b565b606091505b50509050806104d35760405162461bcd60e51b81526020600482015260146024820152732330b4b632b2103a379039b2b7321022ba3432b960611b60448201526064016102c4565b60405183815233907f7084f5476618d8e60b11ef0d7d3f06914655adb8793e28ff7f018d4c76d505d59060200160405180910390a2505050505050565b6000546001600160a01b0316331461057c5760405162461bcd60e51b815260206004820152602960248201527f4f6e6c79206f776e65722063616e206368616e676520706f6f6c206c6f636b20604482015268323ab930ba34b7b71760b91b60648201526084016102c4565b60038190556040518181527fd21facc366489554e16d5f98cebc66efc21bb8e17afc4eed925a11a3081d4ddf906020015b60405180910390a150565b600034116105fc5760405162461bcd60e51b81526020600482015260116024820152702232b837b9b4ba103932b8bab4b932b21760791b60448201526064016102c4565b346001600082825461060e91906107c3565b9091555050604080518082018252348082524260208084019182523360008181526004835286902094518555915160019094019390935592519081527f2da466a7b24304f47e87fa2e1e5a81b9831ce54fec19055ce277ca2f39ba42c4910160405180910390a2565b6000546001600160a01b031633146106c85760405162461bcd60e51b815260206004820152601460248201527327b7363c9037bbb732b910333ab731ba34b7b71760611b60448201526064016102c4565b60028190556040518181527f54cc9a0c7064737ff1cd312e88e62ed2d306d146fe5df13c761b6fcd9a4c170f906020016105ad565b60008060646002548561071091906107e9565b61071a9190610800565b905060006301e1338061072d85846107e9565b6107379190610800565b925050505b92915050565b60006020828403121561075457600080fd5b5035919050565b6000806040838503121561076e57600080fd5b50508035926020909101359150565b60006020828403121561078f57600080fd5b81356001600160a01b03811681146107a657600080fd5b9392505050565b634e487b7160e01b600052601160045260246000fd5b8082018082111561073c5761073c6107ad565b8181038181111561073c5761073c6107ad565b808202811582820484141761073c5761073c6107ad565b60008261081d57634e487b7160e01b600052601260045260246000fd5b50049056fea264697066735822122073597f98ed66541e86c6fba3363a87825349d3040b55a8f96f030626576eac0e64736f6c63430008160033","linkReferences":{}},"methodIdentifiers":{"calculateInterest(uint256,uint256)":"efdd7c07","changePoolLockDuration(uint256)":"cdb6ab0e","changePoolRate(uint256)":"ef8c2922","deposit()":"d0e30db0","deposits(address)":"fc7e286d","getPoolAmount()":"4ab4ba42","getPoolLockDuration()":"998dc2ef","getPoolRate()":"ec9ab641","owner()":"8da5cb5b","poolAmount()":"a693600b","poolLockDuration()":"ba9a1cad","poolRate()":"85096edc","withdraw()":"3ccfd60b"},"id":20}